:100000007FC107C049C0189501C0CEC0BDBD10E07A
:10001000189502FF04C00898077FBDBD189504FF1E
:100020001FC00898809B28C00F7E089A1630B1F335
:10003000123029F0113069F0153071F0189516E082
:100040000860452F405CA41704F122C00860BDBDC4
:10005000189516E0A0E014C011E04CE146BD1895DB
:1000600000610898809B08C0113019F043E246BD3A
:10007000189540E246BD189515E049E646BD18952D
:1000800089D011F444F412E01EF04BE046BD1895FF
:1000900044E046BD1895A1C0402F46954027A29B3D
:1000A000F9CF40B1402743700427103019F440FFC6
:1000B0005BC002C005FD58C040FF1895809B4AC038
:1000C00048B54B312CF44A3064F4433064F418954D
:1000D0000F7D06FF03C038E0A0E050E013E038E0F9
:1000E0001895E89401C06894123049F04BD0C1F7DC
:1000F00086994CD0163039F0133049F018952EF00F
:1001000016E00860189542D0ECF310E01895422FE5
:100110004295421799F42F70261719F412E00860DF
:10012000189510E041E023FB2C7F02C0440F2A9574
:10013000E9F716F0C42B1895D42B18952F702617B5
:10014000E1F712E0086006FDF8CFA1E451E0429526
:1001500040A9189502FD03FFFCCF089AB6BD44E004
:1001600046BD45E04DBD189541FF1895829BFDCFDA
:10017000819BCBCF00620460077F13E038E050E042
:10018000A0E01895220F20F93A9508952D935395E4
:100190005031089527FB220F3A9529F438E02D912C
:1001A00040E4450FA4170895103059F3829B9BC07B
:1001B00002FD15C0173069F440B141FBE3DF09F7D8
:1001C0004DEF40A94AEF41A944EF42A953E016E0A0
:1001D000189503FFFDCF077F019B10E0189503FDE5
:1001E000FDCF40B141FBCEDFC9F7133059F00860B5
:1001F0001630B1F01830B9F01730A1F11430B1F168
:1002000010E0189520FB2695213721F402F90860AB
:1002100014E01895273009F706F3086017E01895E1
:10022000B5DFD9F21895703851F0713859F072383D
:1002300069F0733871F0743879F0753881F02F7087
:10024000522FCBCFF89448E041BF18950F7D15E0B1
:1002500018952F70622FC1CF40E40427BECF40E82D
:100260000427BBCF2137E9F50B7F1895722FBF9B71
:1002700002C018E018957030A1F17130A9F0763005
:10028000E9F0452F51E0773009F1733009F174300E
:1002900009F1753011F15395723009F1542F21C0D5
:1002A0006932636563313A2D58E0A0E4E0EAF2E098
:1002B0004D9141935A95E1F758E013C0F0A1E1A1A7
:1002C000A0E441914D935A95E1F30BC050A909C0A8
:1002D00000A907C041E740A904C060A902C0D0A995
:1002E000C1A910E0189502FF05C003FFFBCF077FEF
:1002F000099A18954FDF0EF4099A99F70860189536
:1003000045E04DBD41E04BBD989AA89A43E040BB03
:10031000909A4FE043B9BB9A49E04ABF002740B1E9
:100320004370042711273327552765E17727AA272C
:10033000BB27CC27DD27EE27FF2778948895FECFB3
:00000001FF
